:020000040800F2
:100000003404002021030008810300088103000854
:10001000810300088103000881030008000000003C
:100020000000000000000000000000008103000844
:10003000810300080000000081030008810300081C
:100040008103000881030008810300088103000880
:100050008103000881030008810300088103000870
:100060008103000881030008190D000881030008BE
:100070008103000881030008810300088103000850
:1000800081030008810300080000000081030008CC
:100090008103000881030008810300088103000830
:1000A0008103000881030008810300088103000820
:1000B000B10C0008810300088103000881030008D7
:1000C000F10C000881030008810300088103000887
:1000D00081030008810300088103000881030008F0
:1000E00081030008810300088103000881030008E0
:1000F0008103000800000000000000000000000074
:1001000000000000000000005FF808F180B487B034
:1001100000AF7860396000237B6100233B610023DE
:10012000FB6000237B617CE07B69012202FA03F320
:100130003B613B681A683B691340FB60FA683B69A6
:100140009A426BD17B681A687B695B00032101FAD4
:1001500003F3DB431A407B681A607B681A683B68CC
:100160001B7919467B695B0001FA03F31A437B682C
:100170001A603B681B79012B03D03B681B79022B6B
:1001800034D17B689A687B695B00032101FA03F331
:10019000DB431A407B689A607B689A683B685B79AE
:1001A00019467B695B0001FA03F31A437B689A6086
:1001B0007B689B889AB27B699BB2012101FA03F3A9
:1001C0009BB2DB439BB213409AB27B689A807B68F8
:1001D0009B889AB23B689B7919467B699BB201FA6E
:1001E00003F39BB213439AB27B689A807B68DA6808
:1001F0007B699BB25B00032101FA03F3DB431A40E6
:100200007B68DA607B68DA683B68DB7919467B6972
:100210005B0001FA03F31A437B68DA607B69013300
:100220007B617B690F2B7FF67FAF1C37BD465DF886
:10023000047B704780B483B000AF78600B467B804E
:100240007B687A881A830C37BD465DF8047B70475B
:1002500080B483B000AF78600B467B807B687A887F
:100260005A830C37BD465DF8047B704780B483B079
:1002700000AF78600B467B807B689B8A9AB27B8854
:1002800053409AB27B689A820C37BD465DF8047B76
:10029000704700BF80B485B000AF786013460A464F
:1002A0007A807B700023FB600023BB607A787B88B8
:1002B00003F007039B0002FA03F3FB607B88DB0873
:1002C0009BB21A467B88DB089BB219467B680831D3
:1002D00053F821107B8803F007039B000F2000FADE
:1002E00003F3DB4319407B68083243F822107B8814
:1002F000DB089BB21A467B68083253F82220FB6861
:100300001343BB607B88DB089BB21A467B680832CC
:10031000B96843F822101437BD465DF8047B704776
:1003200080B582B000AF114B7B60114B3B6007E0A2
:100330003B681A1D3A607A68111D796012681A606C
:100340003A680C4B9A42F3D30B480C494FF0000229
:100350008842B8BF40F8042BFFF6FAAF00F0DEF990
:1003600000F09EFA0837BD4680BD00BF08120008A5
:100370000000002030000020300000203400002069
:1003800080B400AFFEE700BF80B485B000AF7860F6
:100390000023FB60324BFB607B689B79002B4DD0C8
:1003A0002F4B2F4A11687A681268D2430A401A60AC
:1003B0002B4B2B4A51687A681268D2430A405A6024
:1003C0007B681B79FA681344FB60FB68FA68116864
:1003D0007A6812680A431A60214B214A91687A6848
:1003E0001268D2430A409A601D4B1D4AD1687A6850
:1003F0001268D2430A40DA607B685B79102B0ED119
:10040000174B174A91687A6812680A439A60144B2E
:10041000134AD1687A6812680A43DA601BE0104B0D
:10042000FB607B685B79FA681344FB60FB68FA68E1
:1004300011687A6812680A431A600CE07B681B79BD
:10044000FA681344FB60FB68FA6811687A681268FE
:10045000D2430A401A601437BD465DF8047B7047EA
:100460000004014080B483B000AF7860034B7A6829
:100470005A610C37BD465DF8047B704700040140AB
:1004800080B485B000AF78600023FB73084B5A69D5
:100490007B681340002B02D00123FB7301E0002393
:1004A000FB73FB7B18461437BD465DF8047B704731
:1004B0000004014080B489B000AF78600023FB6184
:1004C0000023BB6100237B6100233B610023FB60B1
:1004D0000023BB605F4B9B6803F00C03FB61FB696F
:1004E0000C2B65D801A252F823F000BF21050008AB
:1004F000B1050008B1050008B10500084105000874
:10050000B1050008B1050008B1050008490500085B
:10051000B1050008B1050008B10500085105000843
:100520004C4B5B6803F460435B0BBB60BB680133FF
:100530004FF4004202FA03F31A467B681A6047E060
:100540007B68454A1A6043E07B68444A1A603FE092
:10055000404B9B6803F47013BB613E4B9B6803F4F4
:1005600040037B61BB699B0C3D4AD35CDBB2BB6142
:100570007B699B0D01337B61364B9B6803F48033B1
:100580003B613B69002B09D1BB69334A02FB03F293
:100590007B69B2FBF3F27B681A6019E0BB692F4AF2
:1005A00002FB03F27B69B2FBF3F27B681A600FE097
:1005B000284B5B6803F460435B0BBB60BB68013393
:1005C0004FF4004202FA03F31A467B681A6000BF38
:1005D000204B9B6803F0F003FB61FB691B09FB6187
:1005E000204AFB6913441B78DBB2FB607B681A6806
:1005F000FB68DA407B685A60164B9B6803F4E06343
:10060000FB61FB691B0AFB61164AFB6913441B78FB
:10061000DBB2FB607B685A68FB68DA407B689A60F3
:100620000C4B9B6803F46053FB61FB69DB0AFB61C5
:100630000C4AFB6913441B78DBB2FB607B685A6889
:10064000FB68DA407B68DA602437BD465DF8047BDE
:10065000704700BF003802400024F40000127A0006
:10066000000000200C00002080B483B000AF786050
:100670000B46FB70FB78002B06D0094B084AD1696A
:100680007A680A43DA6106E0054B054AD1697A685F
:10069000D2430A40DA610C37BD465DF8047B7047EF
:1006A0000038024080B483B000AF78600B46FB7026
:1006B000FB78002B06D0094B084A516A7A680A4336
:1006C0005A6206E0054B054A516A7A68D2430A40ED
:1006D0005A620C37BD465DF8047B70470038024013
:1006E00080B483B000AF78600B46FB70FB78002BC2
:1006F00006D0094B084A91697A680A439A6106E074
:10070000054B054A91697A68D2430A409A610C37D1
:10071000BD465DF8047B70470038024080B500AFED
:10072000144B144A126842F480721A60114A114B39
:100730009968114B0B4093600E4A0E4B1B6823F0D7
:10074000885323F0011313600A4B0A4A126822F4FB
:1007500080221A60074B074A926822F47D029A6051
:10076000044B0022DA6000F00BF8044B4FF00062FB
:100770009A6080BD003802400CC0FF8800ED00E0A8
:1007800080B483B000AF00237B6000233B60414B0B
:10079000404A126842F480321A603E4B1B6803F4F0
:1007A00000333B607B6801337B603B68002B03D1E7
:1007B0007B68B3F5A06FF0D1364B1B6803F40033B0
:1007C000002B02D001233B6001E000233B603B682B
:1007D000012B5AD1304B304A126842F004021A60A1
:1007E0002D4B2D4A126842F002021A602A4B2A4A07
:1007F000126842F001021A60264B264A526A42F001
:1008000080525A62254B4FF400621A6000BF234B9E
:100810005B6803F01003002BF9D11E4B1D4A926850
:100820009A601C4B1B4A92689A601A4B194A92684C
:100830009A60184B174A926822F47D029A60154B11
:10084000144A926842F411029A60124B114A1268DB
:1008500042F080721A6000BF0E4B1B6803F00073F9
:10086000002BF9D00B4B0B4A926822F003029A60DE
:10087000084B084A926842F003029A6000BF054B99
:100880009B6803F00C030C2BF9D10C37BD465DF8C7
:10089000047B704700380240003C0240007000407A
:1008A00080B582B000AF0023FB7100F043FAFEE791
:1008B00080B400AF084B1B88013B9AB2064B1A80EC
:1008C000054B1B88002B03D1034B4FF47A721A801F
:1008D000BD465DF8047B70471C00002080B500AF6A
:1008E000002000F0B9F9012000F0B6F9FEE700BFE2
:1008F00080B500AF002000F0C7F9012000F0C4F976
:1009000080BD00BF90B484B000AF02460B46FA71C0
:10091000BB710023FB60BB7903F003039B000F2234
:1009200002FA03F3FB60154BBA799208D2B213496D
:10093000B8798008C0B2023051F82000F968C94384
:100940000140023243F822100C4BBA799208D2B21D
:100950000A49B8798008C0B2023051F82000FC7909
:10096000B97901F00301890004FA01F1014302326F
:1009700043F822101037BD4690BC7047000001407C
:1009800080B582B000AF78607A680D4B9A420AD188
:100990004FF400100121FFF7A3FE4FF400100021D7
:1009A000FFF79EFE09E04FF480000121FFF798FE5B
:1009B0004FF480000021FFF793FE0837BD4680BD4D
:1009C0000054004080B58AB000AF786039600023E1
:1009D000FB8400237B840423BB84574BFB617B682F
:1009E0009B88FB84FB8C23F03F03FB8407F10C0303
:1009F0001846FFF75FFD7B69FB61FA694F4BA3FB6C
:100A000002139B0C7B84FA8C7B8C1343FB847B68E6
:100A1000FA8C9A807B681B889BB223F001039AB200
:100A20007B681A800023FB843B681A68444B9A4217
:100A300015D83B681B685B00FA69B2FBF3F3BB8413
:100A4000BB8C032B01D80423BB84FA8CBB8C1343CF
:100A5000FB847B8C01339AB27B681A8440E03B684C
:100A6000DA884BF6FF739A4209D13B681A6813463D
:100A70005B001344FA69B2FBF3F3BB840EE03B68FE
:100A80001A6813469B0013449A001344FA69B2FB98
:100A9000F3F3BB84BB8C43F48043BB84BB8CC3F3B4
:100AA0000B03002B03D1BB8C43F00103BB84BA8C36
:100AB000FB8C13439BB26FEA43436FEA5343FB84BF
:100AC0007B8C4FF4967202FB03F31E4A82FB0312E7
:100AD0009211DB17D31A9BB201339AB27B681A8446
:100AE0007B68FA8C9A837B681B889BB243F0010376
:100AF0009AB27B681A807B681B88FB84FB8C23F48A
:100B0000816323F00203FB843B689A883B685B891E
:100B100013439AB2FB8C1343FB847B68FA8C1A80D4
:100B20003B689A893B681B8913439AB27B681A8198
:100B30002837BD4680BD00BF00127A0083DE1B430C
:100B4000A0860100D34D621080B483B000AF7860FE
:100B50000B46FB70FB78002B08D07B681B889BB290
:100B600043F001039AB27B681A8007E07B681B8818
:100B70009BB223F001039AB27B681A800C37BD4602
:100B80005DF8047B704700BF80B483B000AF78602D
:100B900013460A467A807B707B78002B08D07B68EE
:100BA0009B889AB27B8813439AB27B689A8009E04B
:100BB0007B689B889AB27B88DB439BB213409AB2D6
:100BC0007B689A800C37BD465DF8047B704700BF98
:100BD00080B485B000AF786039600023FB730023D8
:100BE000BB603B6803F0E0631A0C7B689B889BB298
:100BF0001340BB603B6823F07F433B607B689B8A6C
:100C00009BB21A463B681340002B05D0BB68002BF3
:100C100002D00123FB7301E00023FB73FB7B18462A
:100C20001437BD465DF8047B704700BF80B485B0C3
:100C300000AF786039600023FB603B6823F07F439E
:100C4000FB60FB689BB2DB439AB27B689A821437E5
:100C5000BD465DF8047B704780B582B000AF0346A7
:100C6000FB71FA79064B53F82220F979054B33F8DA
:100C7000113010461946FFF7DDFA0837BD4680BD32
:100C8000200000200012000880B582B000AF0346AB
:100C9000FB71FA79044B33F8123004481946FFF718
:100CA000E5FA0837BD4680BD00120008000002408A
:100CB00080B500AF4FF08040012100F067FA034695
:100CC000002B12D04FF08040012100F089FAFFF78D
:100CD000EFFD064B1B889BB2002B06D0034B1B88F5
:100CE0009BB2013B9AB2014B1A8080BD30000020BC
:100CF00080B500AF06480749FFF76AFF0346002B9F
:100D000005D003480349FFF791FFFFF7E7FD80BDDA
:100D1000005400400004000180B500AF1020FFF730
:100D2000AFFB0346002B04D01020FFF79BFBFFF71F
:100D3000DFFD80BD80B500AF00F00AF800F024F8B8
:100D400000F098F800F0B2F800F0EAF880BD00BFBB
:100D500080B582B000AF02200121FFF785FC4FF47F
:100D600040733B6000233B710023BB710023FB7188
:100D700003237B713B4603481946FFF7C7F9083741
:100D8000BD4680BD0004024080B588B000AF364843
:100D9000FFF7F6FD02200121FFF766FC4FF400107B
:100DA0000121FFF77FFC314806210422FFF772FA88
:100DB0002E4807210422FFF76DFAC023BB610223EE
:100DC0003B770123BB770023FB7701237B7707F178
:100DD000180326481946FFF799F92023BB61012320
:100DE0003B770023BB770023FB7701237B7707F159
:100DF00018031E481946FFF789F91C482021FFF700
:100E000027FA1B4BBB600023BB814BF6FF73FB81B2
:100E10000A233B824FF480637B824FF48043BB8282
:100E200007F1080310481946FFF7CCFD0E484FF4B0
:100E300080710122FFF7A8FE0B480121FFF784FE15
:100E40004FF4A06000F09CF820233B7100237B71DD
:100E50000123BB710123FB713B1D184600F0A2F872
:100E60002037BD4680BD00BF005400400004024052
:100E7000A086010080B582B000AF01200121FFF7FC
:100E8000F3FBC0233B6001233B710023BB710023B4
:100E9000FB7103237B713B4603481946FFF736F984
:100EA0000837BD4680BD00BF0000024080B586B057
:100EB00000AF01200121FFF7D7FB30233B61002366
:100EC0003B7503237B750023BB750223FB7507F17C
:100ED000100312481946FFF719F900200421FFF703
:100EE00011FD10237B6000233B720C237B720123D6
:100EF000BB723B1D1846FFF747FA0A233B730123D9
:100F00007B730123BB730123FB7307F10C031846AA
:100F100000F048F81837BD4680BD00BF0000024011
:100F200080B584B000AF1C233B7000237B7001238D
:100F3000BB700123FB703B46184600F033F80120DC
:100F40000121FFF7AFFB4FF47A73BB600F23BB8027
:100F50000023BB810023FB803B1D4FF080401946DE
:100F600000F07EF84FF080400121012200F0EAF805
:100F70004FF08040012100F0C5F81037BD4680BD1C
:100F800080B483B000AF7860054A7B6843F0BF63EC
:100F900043F40033D3600C37BD465DF8047B7047E3
:100FA00000ED00E080B485B000AF78600023FB73F3
:100FB0000023BB730F237B737B68DB78002B37D058
:100FC000254BDB68DB4303F4E0631B0AFB73FB7B0D
:100FD000C3F10403BB737A7BFB7B42FA03F37B739D
:100FE0007B685B781A46BB7B02FA03F3FB737B6872
:100FF0009A787B7B1340DAB2FB7B1343FB73FB7B5A
:101000001B01FB73154A7B681B781344FA7B83F83A
:101010000023124B7A6812785209D2B279680978A3
:1010200001F01F01012000FA01F143F822100EE047
:101030000A4B7A6812785209D2B27968097801F0BD
:101040001F01012000FA01F1203243F82210143769
:10105000BD465DF8047B704700ED00E000E100E074
:1010600080B485B000AF786039600023FB817B6875
:101070001B88FB817B68B3F1804F0BD07A681C4BD7
:101080009A4207D07A681B4B9A4203D07A681A4B6F
:101090009A4208D1FB8923F07003FB813B685A8890
:1010A000FB891343FB817A68144B9A420CD07A680F
:1010B000134B9A4208D0FB8923F44073FB813B68B1
:1010C0001A89FB891343FB817B68FA891A803B6884
:1010D0005A687B68DA623B681A887B681A857B6885
:1010E00001229A821437BD465DF8047B704700BF29
:1010F0000004004000080040000C004000100040C8
:101100000014004080B483B000AF78600B46FB70E1
:10111000FB78002B08D07B681B889BB243F001034F
:101120009AB27B681A8007E07B681B889BB223F029
:1011300001039AB27B681A800C37BD465DF8047BC8
:10114000704700BF80B483B000AF786013460A4692
:101150007A807B707B78002B08D07B689B899AB261
:101160007B8813439AB27B689A8109E07B689B89EC
:101170009AB27B88DB439BB213409AB27B689A8118
:101180000C37BD465DF8047B704700BF80B485B066
:1011900000AF78600B467B800023FB730023BB818C
:1011A00000237B817B681B8A9AB27B881340BB81BA
:1011B0007B689B899AB27B8813407B81BB89002B1B
:1011C00005D07B89002B02D00123FB7301E00023B3
:1011D000FB73FB7B18461437BD465DF8047B7047F4
:1011E00080B483B000AF78600B467B807B88DB43A4
:1011F0009AB27B681A820C37BD465DF8047B704753
:081200004000800010002000F6
:10120800030406080C10182030000000000000003D
:10121800010203040102030406070809E8030000A9
:1012280000000240000002400000024000000240AE
:0400000508000000EF
:00000001FF
