:020000040800F2
:100000003404002021030008810300088103000854
:10001000810300088103000881030008000000003C
:100020000000000000000000000000008103000844
:10003000810300080000000081030008810300081C
:100040008103000881030008810300088103000880
:100050008103000881030008810300088103000870
:1000600081030008810300080515000881030008CA
:100070008103000881030008810300088103000850
:1000800081030008810300080000000081030008CC
:10009000810300088103000881030008211500087E
:1000A0008103000881030008810300088103000820
:1000B0009D140008810300088103000881030008E3
:1000C000DD14000881030008810300088103000893
:1000D000810300083D150008810300088103000822
:1000E00081030008810300088103000881030008E0
:1000F0008103000800000000000000000000000074
:1001000000000000000000005FF808F180B487B034
:1001100000AF7860396000237B6100233B610023DE
:10012000FB6000237B617CE07B69012202FA03F320
:100130003B613B681A683B691340FB60FA683B69A6
:100140009A426BD17B681A687B695B00032101FAD4
:1001500003F3DB431A407B681A607B681A683B68CC
:100160001B7919467B695B0001FA03F31A437B682C
:100170001A603B681B79012B03D03B681B79022B6B
:1001800034D17B689A687B695B00032101FA03F331
:10019000DB431A407B689A607B689A683B685B79AE
:1001A00019467B695B0001FA03F31A437B689A6086
:1001B0007B689B889AB27B699BB2012101FA03F3A9
:1001C0009BB2DB439BB213409AB27B689A807B68F8
:1001D0009B889AB23B689B7919467B699BB201FA6E
:1001E00003F39BB213439AB27B689A807B68DA6808
:1001F0007B699BB25B00032101FA03F3DB431A40E6
:100200007B68DA607B68DA683B68DB7919467B6972
:100210005B0001FA03F31A437B68DA607B69013300
:100220007B617B690F2B7FF67FAF1C37BD465DF886
:10023000047B704780B483B000AF78600B467B804E
:100240007B687A881A830C37BD465DF8047B70475B
:1002500080B483B000AF78600B467B807B687A887F
:100260005A830C37BD465DF8047B704780B483B079
:1002700000AF78600B467B807B689B8A9AB27B8854
:1002800053409AB27B689A820C37BD465DF8047B76
:10029000704700BF80B485B000AF786013460A464F
:1002A0007A807B700023FB600023BB607A787B88B8
:1002B00003F007039B0002FA03F3FB607B88DB0873
:1002C0009BB21A467B88DB089BB219467B680831D3
:1002D00053F821107B8803F007039B000F2000FADE
:1002E00003F3DB4319407B68083243F822107B8814
:1002F000DB089BB21A467B68083253F82220FB6861
:100300001343BB607B88DB089BB21A467B680832CC
:10031000B96843F822101437BD465DF8047B704776
:1003200080B582B000AF114B7B60114B3B6007E0A2
:100330003B681A1D3A607A68111D796012681A606C
:100340003A680C4B9A42F3D30B480C494FF0000229
:100350008842B8BF40F8042BFFF6FAAF00F0CEFA9F
:1003600000F08EFB0837BD4680BD00BF641B00084F
:100370000000002030000020300000203400002069
:1003800080B400AFFEE700BF80B584B000AF024686
:100390000B46FA71BB7100BF33484FF4003100F0D7
:1003A00073FF0346002BF7D12F48012100F05CFEBC
:1003B00000BF2D482D4900F037FF0346002BF8D031
:1003C000FB7929481946002200F0AEFE00BF2648FE
:1003D000274900F029FF0346002BF8D0BB792248BB
:1003E000194600F0BFFE00BF1F48224900F01CFF65
:1003F0000346002BF8D01C48012100F035FE00BF59
:1004000019481A4900F010FF0346002BF8D0FB7979
:1004100015481946012200F087FE13484FF2FF717C
:1004200000F0BEFE1048002100F05EFE00BF0E4846
:10043000114900F0F9FE0346002BF8D00A480121CB
:1004400000F032FE00BF08480C4900F0EDFE034604
:10045000002BF8D0044800F095FE0346FB73FB7BAD
:1004600018461037BD4680BD00540040010003000F
:100470008200070084000700020003004000030020
:1004800080B582B000AF13460246FA710A46BA71CF
:100490007B7100BF21484FF4003100F0F5FE0346A8
:1004A000002BF7D11D48012100F0DEFD00BF1B48E5
:1004B0001B4900F0B9FE0346002BF8D0FB79174822
:1004C0001946002200F030FE00BF1448154900F024
:1004D000ABFE0346002BF8D0BB791048194600F05C
:1004E00041FE00BF0D48104900F09EFE0346002B60
:1004F000F8D07B790948194600F034FE07480121FD
:1005000000F0D2FD00BF0548074900F08DFE03460C
:10051000002BF8D00837BD4680BD00BF0054004016
:1005200001000300820007008400070080B485B04A
:1005300000AF78600023FB60324BFB607B689B79E7
:10054000002B4DD02F4B2F4A11687A681268D24386
:100550000A401A602B4B2B4A51687A681268D243C2
:100560000A405A607B681B79FA681344FB60FB6899
:10057000FA6811687A6812680A431A60214B214AA6
:1005800091687A681268D2430A409A601D4B1D4AEE
:10059000D1687A681268D2430A40DA607B685B7976
:1005A000102B0ED1174B174A91687A6812680A43CC
:1005B0009A60144B134AD1687A6812680A43DA6069
:1005C0001BE0104BFB607B685B79FA681344FB60AF
:1005D000FB68FA6811687A6812680A431A600CE0CE
:1005E0007B681B79FA681344FB60FB68FA68116842
:1005F0007A681268D2430A401A601437BD465DF823
:10060000047B70470004014080B483B000AF786081
:10061000034B7A685A610C37BD465DF8047B70471E
:100620000004014080B485B000AF78600023FB7304
:10063000084B5A697B681340002B02D00123FB73DF
:1006400001E00023FB73FB7B18461437BD465DF8C1
:10065000047B70470004014080B489B000AF78602B
:100660000023FB610023BB6100237B6100233B610E
:100670000023FB600023BB605F4B9B6803F00C030F
:10068000FB61FB690C2B65D801A252F823F000BF77
:10069000C50600085507000855070008550700085B
:1006A000E50600085507000855070008550700082B
:1006B000ED06000855070008550700085507000813
:1006C000F50600084C4B5B6803F460435B0BBB60B2
:1006D000BB6801334FF4004202FA03F31A467B6809
:1006E0001A6047E07B68454A1A6043E07B68444AE9
:1006F0001A603FE0404B9B6803F47013BB613E4BB4
:100700009B6803F440037B61BB699B0C3D4AD35C4F
:10071000DBB2BB617B699B0D01337B61364B9B6810
:1007200003F480333B613B69002B09D1BB69334A39
:1007300002FB03F27B69B2FBF3F27B681A6019E0FB
:10074000BB692F4A02FB03F27B69B2FBF3F27B68C1
:100750001A600FE0284B5B6803F460435B0BBB60DF
:10076000BB6801334FF4004202FA03F31A467B6878
:100770001A6000BF204B9B6803F0F003FB61FB692C
:100780001B09FB61204AFB6913441B78DBB2FB6049
:100790007B681A68FB68DA407B685A60164B9B6876
:1007A00003F4E063FB61FB691B0AFB61164AFB690A
:1007B00013441B78DBB2FB607B685A68FB68DA4045
:1007C0007B689A600C4B9B6803F46053FB61FB6988
:1007D000DB0AFB610C4AFB6913441B78DBB2FB604C
:1007E0007B685A68FB68DA407B68DA602437BD466C
:1007F0005DF8047B704700BF003802400024F4001D
:1008000000127A00000000200C00002080B483B0A9
:1008100000AF78600B46FB70FB78002B06D0094BCD
:10082000084AD1697A680A43DA6106E0054B054A4D
:10083000D1697A68D2430A40DA610C37BD465DF867
:10084000047B70470038024080B483B000AF78600A
:100850000B46FB70FB78002B06D0094B084A116A47
:100860007A680A431A6206E0054B054A116A7A68FB
:10087000D2430A401A620C37BD465DF8047B7047CC
:100880000038024080B483B000AF78600B46FB7044
:10089000FB78002B06D0094B084A516A7A680A4354
:1008A0005A6206E0054B054A516A7A68D2430A400B
:1008B0005A620C37BD465DF8047B70470038024031
:1008C00080B483B000AF78600B46FB70FB78002BE0
:1008D00006D0094B084A91697A680A439A6106E092
:1008E000054B054A91697A68D2430A409A610C37F0
:1008F000BD465DF8047B70470038024080B500AF0C
:10090000144B144A126842F480721A60114A114B57
:100910009968114B0B4093600E4A0E4B1B6823F0F5
:10092000885323F0011313600A4B0A4A126822F419
:1009300080221A60074B074A926822F47D029A606F
:10094000044B0022DA6000F00BF8044B4FF0006219
:100950009A6080BD003802400CC0FF8800ED00E0C6
:1009600080B483B000AF00237B6000233B60414B29
:10097000404A126842F480321A603E4B1B6803F40E
:1009800000333B607B6801337B603B68002B03D105
:100990007B68B3F5A06FF0D1364B1B6803F40033CE
:1009A000002B02D001233B6001E000233B603B6849
:1009B000012B5AD1304B304A126842F004021A60BF
:1009C0002D4B2D4A126842F002021A602A4B2A4A25
:1009D000126842F001021A60264B264A526A42F01F
:1009E00080525A62254B4FF400621A6000BF234BBD
:1009F0005B6803F01003002BF9D11E4B1D4A92686F
:100A00009A601C4B1B4A92689A601A4B194A92686A
:100A10009A60184B174A926822F47D029A60154B2F
:100A2000144A926842F411029A60124B114A1268F9
:100A300042F080721A6000BF0E4B1B6803F0007317
:100A4000002BF9D00B4B0B4A926822F003029A60FC
:100A5000084B084A926842F003029A6000BF054BB7
:100A60009B6803F00C030C2BF9D10C37BD465DF8E5
:100A7000047B704700380240003C02400070004098
:100A800080B582B000AF0023FB7100F06BFD00F079
:100A900073FC01F04FF8FEE780B400AF084B1B88F1
:100AA000013B9AB2064B1A80054B1B88002B03D1E1
:100AB000034B4FF47A721A80BD465DF8047B704791
:100AC0001C00002080B500AF002000F08DFC01204C
:100AD00000F08AFCFEE700BF80B500AF002000F008
:100AE00083FC012000F080FC41F2883000F0C0FC63
:100AF000002000F091FC012000F08EFC80BD00BFC2
:100B000080B500AF002000F06FFC012000F06CFC0D
:100B100041F2883000F0ACFC002000F07DFC0120A8
:100B200000F07AFC80BD00BF80B500AF002000F06F
:100B30008BFC012000F088FC80BD00BF90B484B025
:100B400000AF02460B46FA71BB710023FB60BB7914
:100B500003F003039B000F2202FA03F3FB60154B23
:100B6000BA799208D2B21349B8798008C0B202307B
:100B700051F82000F968C9430140023243F82210BD
:100B80000C4BBA799208D2B20A49B8798008C0B23F
:100B9000023051F82000FC79B97901F00301890095
:100BA00004FA01F10143023243F822101037BD4626
:100BB00090BC70470000014080B58AB000AF7860FB
:100BC000396000237B6200233B620023FB6100232A
:100BD000BB617B681B8A9BB27B627B6A23F44053B8
:100BE0007B623B68DB887A6A13437B627B6A9AB2DA
:100BF0007B681A827B689B899BB27B627B6A23F449
:100C0000B05323F00C037B623B689A883B681B89D6
:100C100013439AB23B685B8913439BB27A6A1343CE
:100C20007B627B6A9AB27B689A817B689B8A9BB263
:100C30007B627B6A23F440737B623B689B897A6AA0
:100C400013437B627B6A9AB27B689A8207F108033E
:100C50001846FFF701FD7A682F4B9A4202D17B6953
:100C60003B6201E03B693B627B689B899BB29BB224
:100C70001BB2002B0CDA3A6A13469B0013449A000D
:100C80001A443B681B685B00B2FBF3F3FB610BE0AB
:100C90003A6A13469B0013449A001A443B681B6847
:100CA0009B00B2FBF3F3FB61FA691C4BA3FB02133D
:100CB0005B091B017B627B6A1B09642202FB03F355
:100CC000FA69D31ABB617B689B899BB29BB21BB24A
:100CD000002B0DDABB69DB0003F132020F4BA3FBE3
:100CE00002135B0903F007037A6A13437B620CE08B
:100CF000BB691B0103F13202084BA3FB02135B0922
:100D000003F00F037A6A13437B627B6A9AB27B68B3
:100D10001A812837BD4680BD003801401F85EB5140
:100D200080B483B000AF78600B46FB70FB78002B7B
:100D300008D07B689B899BB243F400539AB27B68CE
:100D40009A8107E07B689B899BB223F400539AB297
:100D50007B689A810C37BD465DF8047B704700BF05
:100D600080B487B000AF786013460A467A807B7003
:100D700000233B610023FB600023BB6000237B61F9
:100D80007B687B617B88DBB25B09DBB23B617B8884
:100D900003F01F03FB60FB68012202FA03F3BB6050
:100DA0003B69012B03D17B690C337B6109E03B6913
:100DB000022B03D17B6910337B6102E07B69143322
:100DC0007B617B78002B06D07B697A691168BA68F1
:100DD0000A431A6006E07B697A691168BA68D243EF
:100DE0000A401A601C37BD465DF8047B704700BF9F
:100DF00080B485B000AF78600B467B800023FB7326
:100E00007B681B889AB27B8813409BB2002B02D070
:100E10000123FB7301E00023FB73FB7B18461437AF
:100E2000BD465DF8047B704780B485B000AF786044
:100E30000B467B800023FB810023BB817B881B0A40
:100E4000FB81FB89012202FA03F3BB81BB89DB43EF
:100E50009AB27B681A801437BD465DF8047B7047F0
:100E600080B582B000AF78607A680D4B9A420AD1A3
:100E70004FF400100121FFF723FD4FF40010002173
:100E8000FFF71EFD09E04FF480000121FFF718FD78
:100E90004FF480000021FFF713FD0837BD4680BDE9
:100EA0000054004080B58AB000AF786039600023FC
:100EB000FB8400237B840423BB84574BFB617B684A
:100EC0009B88FB84FB8C23F03F03FB8407F10C031E
:100ED0001846FFF7C1FB7B69FB61FA694F4BA3FB27
:100EE00002139B0C7B84FA8C7B8C1343FB847B6802
:100EF000FA8C9A807B681B889BB223F001039AB21C
:100F00007B681A800023FB843B681A68444B9A4232
:100F100015D83B681B685B00FA69B2FBF3F3BB842E
:100F2000BB8C032B01D80423BB84FA8CBB8C1343EA
:100F3000FB847B8C01339AB27B681A8440E03B6867
:100F4000DA884BF6FF739A4209D13B681A68134658
:100F50005B001344FA69B2FBF3F3BB840EE03B6819
:100F60001A6813469B0013449A001344FA69B2FBB3
:100F7000F3F3BB84BB8C43F48043BB84BB8CC3F3CF
:100F80000B03002B03D1BB8C43F00103BB84BA8C51
:100F9000FB8C13439BB26FEA43436FEA5343FB84DA
:100FA0007B8C4FF4967202FB03F31E4A82FB031202
:100FB0009211DB17D31A9BB201339AB27B681A8461
:100FC0007B68FA8C9A837B681B889BB243F0010391
:100FD0009AB27B681A807B681B88FB84FB8C23F4A5
:100FE000816323F00203FB843B689A883B685B893A
:100FF00013439AB2FB8C1343FB847B68FA8C1A80F0
:101000003B689A893B681B8913439AB27B681A81B3
:101010002837BD4680BD00BF00127A0083DE1B4327
:10102000A0860100D34D621080B483B000AF786019
:101030000B46FB70FB78002B08D07B681B889BB2AB
:1010400043F001039AB27B681A8007E07B681B8833
:101050009BB223F001039AB27B681A800C37BD461D
:101060005DF8047B704700BF80B483B000AF786048
:101070000B46FB70FB78002B08D07B681B889BB26B
:1010800043F480739AB27B681A8007E07B681B8800
:101090009BB223F480739AB27B681A800C37BD46EA
:1010A0005DF8047B704700BF80B483B000AF786008
:1010B0000B46FB70FB78002B08D07B681B889BB22B
:1010C00043F400739AB27B681A8007E07B681B8840
:1010D0009BB223F400739AB27B681A800C37BD462A
:1010E0005DF8047B704700BF80B483B000AF7860C8
:1010F0000B46FB70FB78002B08D07B681B889BB2EB
:1011000043F480639AB27B681A8007E07B681B888F
:101110009BB223F480639AB27B681A800C37BD4679
:101120005DF8047B704700BF80B483B000AF786087
:1011300013460A46FA70BB70BB78002B04D0FB78CC
:1011400043F00103FB7003E0FB7823F00103FB7025
:10115000FB789AB27B681A820C37BD465DF8047B37
:10116000704700BF80B483B000AF78600B46FB705F
:10117000FB789AB27B681A820C37BD465DF8047B17
:10118000704700BF80B483B000AF78607B681B8A73
:101190009BB2DBB218460C37BD465DF8047B704746
:1011A00080B483B000AF78600B467B807B88B3F55A
:1011B000006F08D17B681B889BB243F400639AB22E
:1011C0007B681A8007E07B681B889BB223F400636E
:1011D0009AB27B681A800C37BD465DF8047B704775
:1011E00080B483B000AF786013460A467A807B7083
:1011F0007B78002B08D07B689B889AB27B8813434E
:101200009AB27B689A8009E07B689B889AB27B8857
:10121000DB439BB213409AB27B689A800C37BD4681
:101220005DF8047B704700BF80B487B000AF786082
:10123000396000233B610023FB600023BB60002377
:10124000FB757B689B8A9BB2FB607B681B8B9BB2A8
:10125000BB60BB681B04BB60FA68BB68134323F028
:101260007F433B613A693B681A403B689A4202D12E
:101270000123FB7501E00023FB75FB7D18461C373D
:10128000BD465DF8047B704780B487B000AF7860DE
:1012900039600023FB7500233B610023FB607B6802
:1012A000FB603B681B0F3B613B6823F07F433B6067
:1012B0003B69002B03D0FB681433FB6005E03B68FF
:1012C0001B0C3B60FB681833FB60FB681A683B68CB
:1012D0001340002B02D00123FB7501E00023FB75B6
:1012E000FB7D18461C37BD465DF8047B704700BF88
:1012F00080B485B000AF786039600023FB730023B1
:10130000BB603B6803F0E0631A0C7B689B889BB270
:101310001340BB603B6823F07F433B607B689B8A44
:101320009BB21A463B681340002B05D0BB68002BCC
:1013300002D00123FB7301E00023FB73FB7B184603
:101340001437BD465DF8047B704700BF80B485B09C
:1013500000AF786039600023FB603B6823F07F4377
:10136000FB60FB689BB2DB439AB27B689A821437BE
:10137000BD465DF8047B704780B500AF00F01EF8F5
:1013800038202A219022FFF77BF838200E210022F6
:10139000FFF776F800F002F880BD00BF80B500AF1F
:1013A00038202A21FEF7F0FF034643F00103DBB2A9
:1013B00038202A211A46FFF763F880BD80B582B035
:1013C00000AF38202A21FEF7DFFF0346FB71FB79CF
:1013D00023F00103DBB238202A211A46FFF750F828
:1013E0000837BD4680BD00BF80B582B000AF034660
:1013F000FB71FA79064B53F82220F979054B33F843
:10140000113010461946FEF715FF0837BD4680BD5E
:10141000200000205C1B000880B582B000AF0346AE
:10142000FB71FA79064B53F82220F979054B33F812
:10143000113010461946FEF70BFF0837BD4680BD38
:10144000200000205C1B000880B582B000AF03467E
:10145000FB71FA79044B33F8123004481946FEF751
:1014600005FF0837BD4680BD5C1B00080000024038
:1014700080B483B000AF0346FB80074BFA881A8024
:1014800000BF054B1B889BB2002BFAD10C37BD4621
:101490005DF8047B704700BF3000002080B500AFCE
:1014A0004FF08040012100F00BFB0346002B12D0CF
:1014B0004FF08040012100F02DFBFFF7EDFA064BC5
:1014C0001B889BB2002B06D0034B1B889BB2013BB1
:1014D0009AB2014B1A8080BD3000002080B500AF69
:1014E00006480749FFF704FF0346002B05D00348D1
:1014F0000349FFF72BFFFFF7E5FA80BD00540040DA
:101500000004000180B500AF1020FFF78BF8034600
:10151000002B04D01020FFF777F8FFF7F1FA80BD19
:1015200080B500AF2020FFF77DF80346002B04D0E4
:101530002020FFF769F8FFF7CFFA80BD80B500AF34
:1015400007482021FFF754FC0346012B06D104482D
:1015500040F22551FFF768FCFFF7E6FA80BD00BFB7
:101560000038014080B500AF00F00CF800F036F80C
:1015700000F0AAF800F0C4F800F00AF900F038F919
:1015800080BD00BF80B582B000AF02200121FFF70F
:101590003DF94FF440733B6000233B710023BB7166
:1015A0000023FB7103237B713B460B481946FEF772
:1015B000ADFD4FF480533B6001233B710023BB71B1
:1015C0000023FB7103237B713B4603481946FEF75A
:1015D0009DFD0837BD4680BD0004024080B588B03F
:1015E00000AF3648FFF73CFC02200121FFF70EF95F
:1015F0004FF400100121FFF745F93148062104227C
:10160000FEF748FE2E4807210422FEF743FEC023C2
:10161000BB6102233B770123BB770023FB770123C8
:101620007B7707F1180326481946FEF76FFD202344
:10163000BB6101233B770023BB770023FB770123AA
:101640007B7707F118031E481946FEF75FFD1C481B
:101650002021FEF7FDFD1B4BBB600023BB814BF639
:10166000FF73FB810A233B824FF480637B824FF43C
:101670008043BB8207F1080310481946FFF712FCAC
:101680000E484FF480710122FFF7AAFD0B4801219B
:10169000FFF7CAFC4FF4A06000F00CF920233B7167
:1016A00000237B710123BB710123FB713B1D184695
:1016B00000F012F92037BD4680BD00BF0054004045
:1016C00000040240A086010080B582B000AF012076
:1016D0000121FFF79BF8C0233B6001233B710023EE
:1016E000BB710023FB7103237B713B460348194602
:1016F000FEF70CFD0837BD4680BD00BF000002406C
:1017000080B586B000AF01200121FFF77FF83023BC
:101710003B6100233B7503237B750023BB750223CC
:10172000FB7507F1100319481946FEF7EFFC00207E
:101730000421FFF703FA00200521FFF7FFF930230A
:101740007B6000233B720C237B720123BB723B1D29
:101750001846FEF7EBFE4FF4A06000F0ABF80A234A
:101760003B7301237B730123BB730123FB7307F1DD
:101770000C03184600F0B0F817233B7307F10C0375
:10178000184600F0A9F81837BD4680BD0000024099
:1017900080B584B000AF1C233B7000237B70012315
:1017A000BB700123FB703B46184600F095F8012002
:1017B0000121FFF767F84FF47A73BB601F23BB80EA
:1017C0000023BB810023FB803B1D4FF08040194666
:1017D00000F0E0F84FF080400121012200F04CF9C8
:1017E0004FF08040012100F027F91037BD4680BD41
:1017F00080B588B000AF01200121FFF707F84FF452
:1018000080400121FFF720F80023BB730123FB7305
:1018100002233B734FF40073BB6003237B7307F118
:10182000080322481946FEF771FC204809210722C7
:10183000FEF730FD02233B734FF48063BB6007F17A
:1018400008031A481946FEF761FC18480A210722C6
:10185000FEF720FD4FF416533B610023BB820023AB
:10186000FB8200233B830023BB830C237B8307F194
:1018700010030F481946FFF79FF90D480121FFF7A4
:101880004FFA0B4840F225510122FFF769FA252350
:101890003B7100237B710023BB710123FB713B1D56
:1018A000184600F019F82037BD4680BD0000024000
:1018B0000038014080B483B000AF7860054A7B688F
:1018C00043F0BF6343F40033D3600C37BD465DF88B
:1018D000047B704700ED00E080B485B000AF786015
:1018E0000023FB730023BB730F237B737B68DB78C0
:1018F000002B37D0254BDB68DB4303F4E0631B0A86
:10190000FB73FB7BC3F10403BB737A7BFB7B42FA63
:1019100003F37B737B685B781A46BB7B02FA03F3A5
:10192000FB737B689A787B7B1340DAB2FB7B1343B3
:10193000FB73FB7B1B01FB73154A7B681B7813440D
:10194000FA7B83F80023124B7A6812785209D2B2DC
:101950007968097801F01F01012000FA01F143F8CC
:1019600022100EE00A4B7A6812785209D2B27968D6
:10197000097801F01F01012000FA01F1203243F83B
:1019800022101437BD465DF8047B704700ED00E07F
:1019900000E100E080B485B000AF786039600023DA
:1019A000FB817B681B88FB817B68B3F1804F0BD088
:1019B0007A681C4B9A4207D07A681B4B9A4203D034
:1019C0007A681A4B9A4208D1FB8923F07003FB8195
:1019D0003B685A88FB891343FB817A68144B9A420F
:1019E0000CD07A68134B9A4208D0FB8923F44073D9
:1019F000FB813B681A89FB891343FB817B68FA8969
:101A00001A803B685A687B68DA623B681A887B6890
:101A10001A857B6801229A821437BD465DF8047BE3
:101A2000704700BF0004004000080040000C004068
:101A3000001000400014004080B483B000AF786014
:101A40000B46FB70FB78002B08D07B681B889BB291
:101A500043F001039AB27B681A8007E07B681B8819
:101A60009BB223F001039AB27B681A800C37BD4603
:101A70005DF8047B704700BF80B483B000AF78602E
:101A800013460A467A807B707B78002B08D07B68EF
:101A90009B899AB27B8813439AB27B689A8109E04A
:101AA0007B689B899AB27B88DB439BB213409AB2D6
:101AB0007B689A810C37BD465DF8047B704700BF98
:101AC00080B485B000AF78600B467B800023FB7349
:101AD0000023BB8100237B817B681B8A9AB27B88B1
:101AE0001340BB817B689B899AB27B8813407B81C2
:101AF000BB89002B05D07B89002B02D00123FB730F
:101B000001E00023FB73FB7B18461437BD465DF8EC
:101B1000047B704780B483B000AF78600B467B8055
:101B20007B88DB439AB27B681A820C37BD465DF82E
:101B3000047B704780B500AF07484FF48051FEF733
:101B400079FB40F2DC50FFF793FC03484FF48051DF
:101B5000FEF77EFB80BD00BF000402404000800015
:041B60001000200051
:101B6400030406080C1018203000000000000000D8
:101B7400010203040102030406070809E803000044
:101B84000000024000000240000002400000024049
:0400000508000000EF
:00000001FF
